:020000040800F2
:10000000002100204D290008CF6D00083929000883
:1000100039290008392900083929000800000000A2
:10002000000000000000000000000000692A000835
:100030003929000800000000352A0008253B000887
:10004000F12B0008F12B0008F12B0008F12B000820
:10005000F12B0008F12B0008F12B0008F12B000810
:10006000F12B0008F12B0008F12B0008F12B000800
:10007000F12B0008F12B0008F12B0008F12B0008F0
:10008000F12B0008F12B0008F12B0008F12B0008E0
:10009000F12B0008F12B0008F12B0008F12B0008D0
:1000A000F12B0008F12B0008F12B0008F12B0008C0
:1000B000F12B0008F12B0008F12B0008F12B0008B0
:1000C000F12B0008F12B0008F12B0008F12B0008A0
:1000D000F12B0008F12B0008F12B0008F12B000890
:1000E000F12B0008F12B0008F12B0008F12B000880
:1000F000F12B0008F12B0008F12B0008F12B000870
:10010000F12B0008F12B0008F12B0008F12B00085F
:10011000F12B0008F12B0008F12B0008F12B00084F
:10012000F12B0008F12B0008F12B0008F12B00083F
:10013000F12B0008F12B0008F12B0008F12B00082F
:10014000F12B0008F12B0008F12B0008F12B00081F
:10015000F12B0008F12B0008F12B0008F12B00080F
:10016000F12B0008F12B0008F12B0008F12B0008FF
:10017000F12B0008F12B0008F12B0008F12B0008EF
:10018000F12B0008F12B0008F12B0008F12B0008DF
:10019000F12B0008F12B0008F12B0008F12B0008CF
:0C01A000F12B0008F12B0008F12B0008E7
:0401AC00FFFFFFFF53
:1001B0007BB972B90029BEBF00204FF0004106E0B4
:1001C00008BF00281CBF6FF000414FF0FF3000F067
:1001D00057B8ADF1080C6DE904CE002909DB002BFE
:1001E0001ADB00F069F8DDF804E0DDE9022304B071
:1001F0007047404261EB4101002B1BDB00F05CF8D3
:10020000DDF804E0DDE9022304B0404261EB410186
:10021000524263EB43037047524263EB430300F0E7
:100220004BF8DDF804E0DDE9022304B0404261EB65
:1002300041017047524263EB430300F03DF8DDF8A3
:1002400004E0DDE9022304B0524263EB430370474C
:1002500053B94AB9002908BF00281CBF4FF0FF312D
:100260004FF0FF3000F00CB8ADF1080C6DE904CE92
:1002700000F022F8DDF804E0DDE9022304B0704765
:10028000704700BF10F8012B11F8013B012A28BF6D
:100290009A42F7D0D01A7047034611F8012B03F8A1
:1002A000012B002AF9D17047034613F8012B002ACD
:1002B000FBD1181A013870472DE9F04786468C4665
:1002C0000846089E154674461946002B40F0C28029
:1002D0008542B2FA82F245D94AB1C2F1200300FA4E
:1002E00002FC2EFA03F3954043EA0C0C94404FEACB
:1002F000154EA8B2BCFBFEF8230C0EFB18CC08FB75
:1003000000F943EA0C43994528D9EB1808F1FF3767
:1003100004D2994502D9A8F102072B44A3EB0903A3
:10032000A4B2B3FBFEFC0EFB1C330CFB00F044EA52
:100330000344A04214D92C190CF1FF3304D2A0427B
:1003400002D9ACF102032C44241A43EA07401EB13F
:10035000D440002334607360BDE8F0874746DDE792
:100360006346F1E792BB431B01214FEA154EAFB242
:10037000B3FBFEFC200C0EFB1C330CFB07F840EA21
:100380000343984562D9EB180CF1FF3004D298452D
:1003900002D9ACF102002B44A3EB0803A4B2B3FBD7
:1003A000FEFC0EFB1C330CFB07F744EA0344A74298
:1003B0004ED92C190CF1FF3304D2A74202D9ACF16B
:1003C00002032C44E41B43EA0040C0E7C2F12003CF
:1003D00020FA03F1954090402EFA03F303434FEACD
:1003E000154EAFB2B1FBFEFC0EFB1C10190C0CFB42
:1003F00007F841EA0041884504FA02F422D9691855
:100400000CF1FF3004D2884502D9ACF10200294436
:10041000A1EB08019BB2B1FBFEFC0EFB1C110CFB17
:1004200007F743EA01439F420ED9EB180CF1FF3165
:1004300004D29F4202D9ACF102012B44DB1B41EAFA
:10044000004192E76046E3E76146F7E76046A3E7CD
:100450006346B7E7834206D916B9002108467BE711
:10046000C6E900E0F9E7B3FA83F78FB9834201D315
:10047000724508D8BEEB020460EB030301209C46E2
:100480001EB9002168E73846FAE7C6E9004CF8E7EC
:10049000C7F1200CBB4022FA0CF41C432EFA0CF1DD
:1004A00020FA0CF3B84001434FEA14490EFA07F55D
:1004B000B3FBF9F81FFA84FE09FB18300B0C08FB9C
:1004C0000EFA43EA00439A4502FA07F240D9E318CC
:1004D00008F1FF3004D29A4502D9A8F10200234462
:1004E000A3EB0A0389B2B3FBF9F809FB183308FB45
:1004F0000EFE41EA03418E452CD9611808F1FF3305
:1005000004D28E4502D9A8F10203214443EA0040F7
:10051000A0FB0298A1EB0E014145CE46434602D313
:1005200006D14D4504D2B9EB020E68EB0403013845
:10053000002EA6D0B5EB0E0261EB030101FA0CFC14
:1005400022FA07F34CEA0303F940C6E9003198E7C1
:100550004046C5E74346D9E72DE9F047044688B051
:100560008846174607F0D6FB0A220023FFF770FEE5
:10057000B8F1010F06460D4607D102460B4620464C
:10058000274905F061FD002011E07F6825483946C4
:10059000FFF778FE70B124483946FFF773FE48B183
:1005A000204622493A4605F06BFD6FF0040008B082
:1005B000BDE8F0873046294617A3D3E90023FFF7AB
:1005C000F7FD06460D4610461946194A0023FFF767
:1005D000EFFD80460F46104619464EF66022002376
:1005E000FFF7E6FD82468946104619464FF47A72B7
:1005F0000023FFF7DDFDCDE902A9CDE90623CDE912
:100600000401CDE900870B4932462B46204605F010
:100610001BFDB8E7AFF30080005C2605000000007A
:10062000CF8F0008E08F0008E38F0008EC8F0008F0
:1006300080EE36000490000808B50349034804F032
:100640002BFE002008BD00BF388F0008528F000825
:10065000014B1B68184700BF00000020014B1860C9
:10066000704700BF0000002030B585B004460D463D
:1006700010220021684607F0C3FD02238DF80230E6
:100680002A46044B01932146684604F01FFF05B03B
:1006900030BD00BF5106000880B505460E4617461E
:1006A000984604F0E5F9034607F0BAFDDFF8189024
:1006B000044649F80030424630463946A84754F8C7
:1006C000090002F05FF900BF08000000034A536808
:1006D00023F0020353600020704700BF002004E0B5
:1006E000084B1A6842F400721A601A6842F4806279
:1006F0001A601A6842F480721A60034B034A1A6047
:10070000704700BF00200240BC00002000093D00EF
:10071000014B0360002070474888000810B504466C
:1007200003F0CAFA03490246204605F08DFC00207A
:1007300010BD00BF7A8F000837B513460022019222
:10074000054601AA58680A2101F006FB019C4CB934
:1007500020EAE0700A2180FB010104F06BF92046D9
:1007600003B030BD22460349284605F089FC019CB0
:10077000F5E700BFA68F000808B5034A034905F056
:1007800063FC002008BD00BF969000089D90000803
:1007900010B5044603F072FA07490246204605F0F8
:1007A00053FC2046054905F04FFC0548214604F05E
:1007B0001BFA002010BD00BFDF900008FE9000086B
:1007C000C507000870B58EB004460D46D0F89C6091
:1007D00007F053F9034607F023FD214A2149105839
:1007E000214A002B18BF1A460092204A2346844211
:1007F00018BF0A4628461E4905F026FCD4E90A23FC
:10080000CDE90023284694F90E30227B194905F0E2
:100810001BFC06A92022204603F040FD636E16490A
:100820000246284605F010FC05A9204607F035F9D8
:10083000024628B11149284605F006FC0EB070BDED
:10084000059B6422F11A4A430091B2FBF6F20C496F
:10085000CDE901622846324605F0F6FBEEE700BF1F
:100860000800000072980008089100083FA00008E6
:100870000B91000817910008439100085A91000855
:1008800087910008F0B5002591B00446294608AFCD
:100890001C2209A807F0B4FC134E1A222021384666
:1008A00007F0AEFC2146114804F09EF907AA4FF468
:1008B0000061304607F0E5F8079A0097C2F500613D
:1008C00064234B43DB0A05934FF40063CDE9031324
:1008D000CDE90132204606492B46A6F1400205F03B
:1008E000B3FB284611B0F0BD80130020F5080008C6
:1008F000D891000870B50446D0F89C6088B00D46C9
:1009000007A907F0CAF8024628B10F49284605F0A2
:100910009BFB08B070BD204607F0AFF8079B009620
:10092000F11ACDE90131094B64224A43002818BF6E
:100930000346B2FBF6F20649CDE903622846224699
:1009400005F082FBE5E700BF5A9100080891000816
:10095000219200082DE9F04387B00546684603F070
:1009600061FA009E184A194FDFF86480DFF864903E
:10097000142303FB00660821284605F058FB009C61
:10098000B44203D3002007B0BDE8F08323680BB165
:100990001A7832B923463A46142101A804F08EFC95
:1009A00001AB42460821284605F041FB204607F0EE
:1009B00011F8094B094A002808BF4B460821284670
:1009C00005F035FB1434DBE7949200089E92000892
:1009D000A39200088B92000885920008FA980008FC
:1009E0002DE9F04114468846074610226068002130
:1009F00004F006FDB8F1020F064607D8254A202369
:100A00000821384605F013FB336816E00A2200215E
:100A1000A06804F0F5FCC5B21E4A2B4608213846F2
:100A200005F005FBB8F1030F1AD1102D0CD0202DC5
:100A3000EAD0082D0BD13378DBB2174A08213846AB
:100A400005F0F5FA002009E033889BB2F5E7384657
:100A5000124A082105F0EBFA6FF01500BDE8F081AD
:100A6000E0681022002104F0CBFC0D4A0346044646
:100A70000821384605F0DBFA102D06D0202D07D0CE
:100A8000082DE4D1E4B23470DCE7A4B23480D9E7B5
:100A90003460D7E7D792000802930008EC92000870
:100AA000139300082DE9F04F5A4BDFF86CA185B085
:100AB00091460122074688461A6002F045FA4FF037
:100AC000FF3520262C4649465246404602F060FA41
:100AD000411C06D16A1C50D15049384605F0D0FA65
:100AE0001CE073281FD0772832D0612816D1DFF898
:100AF00030B11022DBF80000002104F081FC054633
:100B00000028E0D107F08CFB464B1B58162BDAD19E
:100B1000DBF800204449384605F0B2FA6FF01500C2
:100B200005B0BDE8F08FDFF8F8B00022DBF8000078
:100B3000114604F065FC04460028C4D107F070FBA0
:100B4000384B1B58162BBED1DBF800203749E2E7A3
:100B5000DFF8CCB00022DBF80000114604F050FCB6
:100B600006460028AFD107F05BFB2E4B1B58162B17
:100B7000A9D1DBF800202E49CDE7631C01D12D4916
:100B8000ABE75FFA86F8C6F3C406002C3FD06B468D
:100B900029461A46A6EB050C0CE0B8F1100F1DD043
:100BA000B8F1200F20D0B8F1080F2AD108781870BA
:100BB00031443344A64203D80CEB01001028ECD991
:100BC000102CA14628BF4FF0100929464B46384645
:100BD00000F09AFF1035A4EB0904D6E7088880B22C
:100BE0001870000A5870E3E7086818704FEA102E72
:100BF00083F801E04FEA104E000E83F802E0D8704F
:100C0000D6E70D4A0821384605F011FA86E7204656
:100C100086E700BF6C00002061930008689300081D
:100C20001C0900200C000000279300083A930008DC
:100C30004D93000885930008EC92000870B50F4EA4
:100C4000044633780D4671B123B1BDE870400C49BC
:100C500005F016BA012333700A49204605F0F4F96D
:100C60000123337004E083F001033370002BF3D1D0
:100C700029462046BDE8704005F045BAA00A00208C
:100C80009F930008DA93000870B504463B48037848
:100C9000182B02D10B78112B31D0013A0B468D184D
:100CA000AB4225D18B5C0A780370A2F13003092B8B
:100CB000334C04D922F02003413B052B04D8236890
:100CC0003049CA54013323602368022B33D11022E8
:100CD0002C48002104F094FB2B4A136803F8010B05
:100CE00013602A4A1368013313600023236022E053
:100CF00013F8016B182ED3D11E78112ED0D1234DAD
:100D000023492A68204605F09FF920460021FFF775
:100D100095FF204B187870B91F4A2B681168042B77
:100D20000ADC08B111602B6013F003010BD11268CB
:100D300013681BBA136070BD086800BA41F8040B51
:100D4000043B0120EBE75B4203F0030358BF594229
:100D5000022904D1126813885BBA9BB2EAE703291F
:100D6000E9D1106802681104C2F3074301F47F015E
:100D70000B4302F47F4213430360DCE7A10A002027
:100D8000C0050020A30A0020CC050020C4050020D7
:100D900004940008A20A0020C80500202DE9F84F9D
:100DA0000C462B49DFF8AC80DFF8AC90DFF8ACB034
:100DB00000230B602A4988F8003006460B60154670
:100DC000012C2F4655F804AF1ED902224946504641
:100DD00007F053F980B99AF80220003A18BF0122AF
:100DE000924420490222504607F047F930B90123C6
:100DF00088F80030013CE3E70022F1E7494650461D
:100E0000FFF740FAA8B9043700221146786804F0C9
:100E100081FA154B002211461860786804F07AFABE
:100E2000124B134918603046FFF708FF0020BDE859
:100E3000F88F9AF800202D2AE6D19AF80120002A8E
:100E4000E2D052465946304605F0FEF8D2E700BFE0
:100E5000C0050020A20A00201E9400082494000867
:100E6000C405002021940008CC050020C8050020FE
:100E7000890C000813B5094806F0ACFD58B1084AC2
:100E800006491268074800240094012300F0A2FEDE
:100E9000204602B010BD6FF01200FAE7E0830008B0
:100EA000F0880008E086000810B54468C4E9001224
:100EB000A36042684023D36402F158031363002304
:100EC0000821C2E90E33C2E91133C2E90633C2E98F
:100ED0000933D1621468536302F150011364116144
:100EE00053611362C2F8D030A36823B19B6C13B175
:100EF000044920469847A3689B6A0BB1204698474F
:100F0000002010BD715D000810B5816804461831DD
:100F100001F056F9A168034A20461831BDE8104097
:100F200001F0F4B89F95000838B58368D3F878329B
:100F3000DB0704461AD4406803685B689847054697
:100F400020B9E06805F07AFEA3681D75A3685B6CA4
:100F500013B1294620469847A36807F061F900229B
:100F6000C3F82023034B185801F00CFD6FF00F0558
:100F7000ECE700BF08000000014904F0ABBF00BF70
:100F8000BC910008F7B504468068D0F878325A075B
:100F90000D4605D5002104F0C5FFE06805F020FEF0
:100FA000E368DB6873B9002D3BD0A66806F15607ED
:100FB000384604F09CFF002835D0394606F5AB7062
:100FC000FFF76AF9A268E0680DF106035632294678
:100FD00005F009FE58B9A06800F5AB715630FFF76F
:100FE0005BF9A068563004F082FFADF80600204699
:100FF00005F07CFBA368D3F874329B0603D50B493C
:10100000606904F067FF204600F00EFFA268BDF89B
:101010000630A2F85230A2682046A2F8503005F0FF
:10102000CAFA03B0F0BD86F85601CBE70C88000879
:101030002DE9F04FA7B004465422002111A807F073
:10104000DFF80023CDE90533A36820465633029329
:1010500005F053FB204605F097FA10B96069FFF7D9
:101060008BFFA06814220021183007F0C9F8204631
:1010700005F030FAA168E068B1F85020563100263A
:1010800005F0E8FD204605F067FE4FF0FF37B24659
:1010900003960DF14408B3463546B146DDE9053205
:1010A000012A6DD0132B6ED85FBBBBF1000F0AD0A5
:1010B000204605F072FEA2681423563211A90DEBEA
:1010C000030005F086F8B9F1000F0CD099F8113043
:1010D000FE2B08D1059B26AA02EB830252F8542C62
:1010E0000AB101330593A068059D436A002B40F0C7
:1010F000B680CEB1C3699E422DD00D9600F1180581
:1011000024E0029A0223414606A805F062F80699F7
:10111000D8F804200292034631B101290AD148B11E
:101120006D4A204605F09BFB6FF00705284627B067
:10113000BDE8F08F059B002B34D0D8F8000001F0FB
:101140005FF898B166B1A5680D9618350CAE0FCE54
:101150000FC533682B602046FFF7D6FE0125E5E773
:101160005E4A0121204605F07AFBDDE7059BCBB105
:10117000D8F800202946204601F0E4F9022809D1D8
:10118000059B132B91D9069B022B8ED1544B554AAC
:101190000121C6E7032805D0059B013305934FF0D5
:1011A000010B7BE7039B33B9D8F8001007AA484628
:1011B00005F006F9054608F10408013F9DB3EB6808
:1011C000BBF1000F08D0F3B1204605F096FA204697
:1011D00005F0F1F9444AC4E7ABB1A368DDF814A007
:1011E000AE4603F1180CBEE80F00ACE80F00DEF8C5
:1011F0000030CCF80030AB682BB96B7CFE2B04BF01
:101200002F7C07F1FF37D5F804C0BCF1000F08D0E0
:10121000AE46BEE80F000CAE0FC6DEF800303360FD
:101220006646A94603E0059B53B101230393069B41
:1012300017B9022B7FF432AF059B013305932DE7DD
:10124000A368DB6A13B1DB68002BEED1274B009358
:10125000274A119B0121204605F001FBE5E790F8A4
:101260002830A5EB0A05BBB190F829104FF6FF72A4
:10127000FF2918BF0A469D4202D313449D420BD951
:1012800083691C4A0121204605F0E9FA2046FFF750
:101290003BFE6FF0150549E7012104F038FEA06818
:1012A00000F5437004F057FEA36811AA294602EB2B
:1012B0008A025B6A204698470546A0684FF0FF32D5
:1012C0004FF0FF3300F5437004F0ECFDA0680021FF
:1012D00004F01DFE2AE700BFAD950008C195000887
:1012E000229600085F8F0008DF9500080E96000820
:1012F000279900084696000810B5836802221A75DF
:1013000083689B6C0446BBB904F0A3FD8368D3F8E3
:101310007832DB040BD50321084B094A05F09FFA0C
:10132000A0686FF4805100F51E7004F0ACFD2046FB
:10133000BDE8104000F0CCBE10BD00BF61960008B3
:10134000A59200082DE9F04F04468068B1B0012154
:1013500000F51E7004F088FDA3681B7D022B20D1D0
:1013600000230993A36860689E6C03681D6909AB3C
:101370000EB310221BA9A847099B93B1A0680121B5
:1013800004F0C5FD099A1BA92046B047A0680021BA
:1013900004F0BDFDA3689B6C002BE3D12046FFF752
:1013A000ABFFA0686FF0010100F51E7031B0BDE821
:1013B000F04F04F068BD01220DF12301A847099BFD
:1013C000002BEED09DF923209DF82310A368002A5E
:1013D000C8DB5A7D032A00F29882DFE812F004008D
:1013E00085029C0296020D297CD00A2958D0B3F8B8
:1013F00078226FF3CA02A3F878220929A06800F0C6
:1014000086803DD80029ADD0082900F0FC81034634
:10141000D3F874229207A5D501391629A2D801A2C2
:1014200052F821F0B91900084118000849180008BD
:1014300039180008AD19000867180008651300087E
:101440006513000865130008651300086F1800088D
:101450007718000865130008A11800086513000834
:10146000AB18000865130008651300086513000831
:1014700065130008AF18000865130008D9180008A4
:101480001B2941D07F2900F0CA81A1F120025E2AE8
:101490000346BDD8012104F045FD9DF82310B9E0B5
:1014A000D3F87822C2F3C7022AB1D3F87822C2F364
:1014B000C7020A2AACD1B3F8782261F3CA02A3F8B2
:1014C0007822A568B5F85010C1B9284604F02AFD65
:1014D000E06805F085FB6069FFF74EFD2046FFF7E9
:1014E0000BFF3FE7D3F87822C2F3C702002AE2D00D
:1014F000D3F87822C2F3C7020D2ADBE72046FFF7B4
:1015000097FDC5F82403E9E7012343752AE7D0F8DE
:1015100074329B077FF526AF012104F003FDA0681C
:10152000B0F85030FF2B3FF41DAFB0F8522000F15F
:10153000560100F5AB7006F03BFEA368B3F85220ED
:101540001344002583F85651A2681BA9142302F501
:10155000AB720BA804F03DFE0B9914293FF602AFC5
:1015600030AB03EB810343F8545CA368B3F852201B
:10157000002A53D0134493F85530202B02D0093B56
:10158000042B4BD800294CD100250A950A9B30AA80
:1015900002EB8303002653F854AC504604F0A7FC3A
:1015A000B3468146B046374616AA3946284600F06B
:1015B00099FB0346002840D1012EA76865D10A9BFC
:1015C00030AA02EB830353F8540C04F090FC07F1AB
:1015D000180206464146284600F084FB0568284666
:1015E00004F085FC864205D0821B92B2A9192046E0
:1015F00005F07CF9A068B0F85230034493F85630F7
:10160000202B31D0093B042B2ED9D0F87432DF07C0
:101610002FD42021204600F023FDA3E60129B3D9D1
:10162000013900200CAB009301900AAB1BAA04F017
:10163000F2FE05460028A9D194E61B6803934A46AA
:101640005146184606F019FD60B9039B1846FEF78F
:101650002BFE584538BF58461FFA80FB002E08BFA6
:10166000B846013601379FE70121204604F0D7FF35
:1016700078E6002104F060FC2021204600F0F0FC18
:10168000A068012104F058FC6CE604907FF66AAE75
:101690000A9A30AB03EB8202C14652F8543C0393E2
:1016A000184604F024FC049B0590A7F840300496EB
:1016B000A26849461832284600F014FB039BD0F874
:1016C00000A009F101094BB1BAF1000F06D0059A4B
:1016D0001946504606F0D1FC0028E9D1A168BAF1BC
:1016E000000F4ED1A1F840A0049B013B0493DFD131
:1016F0006069FFF741FC204600F0EAFC0A9B30AA33
:1017000002EB830308F1010A53F8540C04F0EFFBD9
:10171000414611AA8146284600F0E4FA0746A0682F
:101720003968FF2200F5AB7006F0B9FC3B68039303
:101730004FF6FF77B84616AA514628460AF1010B24
:1017400000F0D0FA002852D0A168036801F25511C8
:10175000002211F801EF985C704503D110B10132FD
:101760004245F6D1B9F1000F01D04A4507DBBA4234
:1017700006F1FF36A8BF3A46012E97B237D0DA46B7
:10178000D9E79948069104F0B2FB069907914A8F70
:1017900000EB0B07BFB2121A504692FBF7F292B25F
:1017A000069204F0A4FB0799069A3F1AB1F840008C
:1017B00000F1010CA1F840C0B0FBF2F102FB1100F6
:1017C00080B2BFB260B9884B884ACDF800A006212C
:1017D000204605F044F83946204600F00FFB83E729
:1017E000834A53460621204605F039F8F3E7002FD7
:1017F0003FF4B8AD0399A7EB090292B249442046E1
:1018000005F074F8AEE5D0F874329E077FF5AAAD06
:10181000012104F087FB204605F089F8A2E5D0F805
:1018200074329D077FF59EAD012104F07BFBA36818
:10183000D3F874321907EED4204605F059F891E533
:10184000204604F063FF8DE5204604F056FF204655
:1018500004F09AFE10B96069FFF78EFBA0680121C1
:1018600004F060FB3AE6204604F059FF7AE5204692
:1018700004F060FF76E5D3F874329B0603D55D492A
:10188000606904F027FBA368D3F874329F0603D580
:101890005949606904F01EFB204600F019FC61E51F
:1018A00000212046FFF76EFB5CE50121F9E72046A9
:1018B00004F01CFF204604F0CCFA0121A06804F0DB
:1018C00031FBA368D3F874329E067FF54BAD4B49CC
:1018D000606904F0FFFA45E5204600F01FFBA068B0
:1018E000012104F01FFB3DE55B2902D102225A755C
:1018F00038E5D3F874329D0706D5622907D14FF039
:10190000FF31204604F0B4FEA3680022EFE7662909
:10191000FAD10121F5E700225A75A268D2F8743293
:1019200098077FF51FADA1F131031B2B3FF61AADD0
:1019300001A151F823F000BFB5190008C119000832
:10194000D5190008A91900086513000865130008D7
:101950006513000865130008651300086513000887
:101960006513000865130008651300086513000877
:101970006513000865130008AB180008A1180008DB
:10198000671800084118000865130008AD19000821
:1019900065130008B91900086513000865130008ED
:1019A00065130008C519000803235375204604F089
:1019B000A4FED7E403235375204604F097FED1E438
:1019C00003235375A068D0F8741201F0010181F06F
:1019D000010157E603235375A368D3F874329B07BC
:1019E0007FF5C0AC28E700BF71980008A5960008F5
:1019F000A592000811880008168800080C880008C5
:101A0000F8B504468068154600F51E70002935D0EB
:101A10004FF4804104F028FAA368DD64606803682D
:101A200000219B689847002844D1204604F095FA8D
:101A300000283FD1204E214FA06800F52F704FF0B5
:101A4000FF324FF0FF33032103F04CFA0546A06844
:101A50004FF0FF324FF0FF3300F543709DB104F0BB
:101A600021FA20462B46164A012104F0F8FEA06810
:101A7000BDE8F84000F5437004F06DBA6FF48041A2
:101A800004F001FAC8E704F00DFA324602212046BC
:101A900004F00AFA20463A46294604F005FA60683E
:101AA00003685B6903B19847A06800F5437004F0D0
:101AB00052FAC1E7F8BD00BF290F0008451300081E
:101AC000AB96000810B50B49044604F0BDFA204659
:101AD000094904F0B9FA2046084904F0B5FA20464D
:101AE000074904F0B1FA2046064A002100F00EFB37
:101AF000002010BDC2960008009700085F970008FC
:101B0000B39700084D980008F8B517461E460A46D8
:101B10002949044604F098FA3EB33A78274920460A
:101B200004F092FA01256A0703D12549204604F002
:101B30008BFAAE421ED97A5D2049204604F084FA21
:101B40000135102DEFD11F49204604F07DFAB6B9BA
:101B50001B49204604F078FA0125AE422B4610D8E6
:101B60001749204604F070FA15E01749204604F0A2
:101B70006BFA01251449204604F066FAE0E70025D7
:101B80002B46FA5C1149A2F120035F2B28BF2E22BD
:101B9000204604F059FA0135102D06D06B07DCD130
:101BA0000749204604F050FAD7E720460849BDE827
:101BB000F84004F049BA00BF639800086A9800082A
:101BC00072980008749800087098000896980008A9
:101BD000769800082DE9F043044680688846D0F8DE
:101BE000201389B015461F46002960D14FF44A7270
:101BF00006F006FBE06805F095F8A06800F5437074
:101C000005F02EFF4FF42F794FF41F76A068304473
:101C100006F0E4F9A0680022831901214844103637
:101C200006F0B3F9B6F52F7F09F11409EED1A369D7
:101C300000261E60A068022100F51E7004F014F951
:101C4000A36850225A87A36818221A872168204661
:101C500004F024FAA368174A66F38205C3F87452A5
:101C60006068036841461D682346A8470546D0B909
:101C7000A36801221A75D4E9090100220023CDE9E5
:101C800006230E230393109B0495CDE90173009462
:101C9000094B4FF4006202F0C5FBA368C3F82003B0
:101CA000216A02F0EBFA284609B0BDE8F0836FF034
:101CB0007705F8E7FB5E0008011A000810B5044636
:101CC00013460A460146064801F010F923691B79BC
:101CD00023B12046BDE8104004F01BBA10BD00BF80
:101CE0002B61000838B50B46154648B91449154A0A
:101CF000521AB3EB920F05D251F82350284638BD43
:101D000084680CB90025F9E70F4A94420AD30F4AB8
:101D1000944207D218462268294690472B68002B28
:101D2000ECD1EFE70A4A944202D30A4A944205D31F
:101D3000246814225343E518E358F0E70133F8E729
:101D40000C87000834870008FC870008FC8700081F
:101D500034870008FC870008F7B516460278002390
:101D60002D2A0446019305D16FF01503336000203E
:101D700003B0F0BD06F054FA0B4F0546C3510A46B6
:101D8000204601A903F03CFBEB59222B02D16FF056
:101D90002103EBE7002BE7D1019BA342E4D01B78A2
:101DA000002BE5D0E0E700BF0C0000008368D3F80B
:101DB00074329B0603D50249406904F0C6BB7047E4
:101DC0001C880008014904F0C0BB00BFBC9100089A
:101DD0000A1E0DDC0ED042238168D1F874128906E8
:101DE00008D5002A04494069B8BF524204F0ADBB8F
:101DF0004123F1E7704700BF929800080A1E0DDCEE
:101E00000ED044238168D1F87412890608D5002ABF
:101E100004494069B8BF524204F097BB4323F1E73D
:101E2000704700BF929800082DE9F0478568DFF8F9
:101E30006890044605F15600FEF736FA002395F83F
:101E40003C7086B29846A268558FED1BB54209DBFF
:101E5000002E1FDD563360691049BDE8F0471A4473
:101E600004F073BB1D442A44563392F856A082F8FE
:101E70005680A26860691A44494604F066FBA3686C
:101E80002B4483F856A0A3685B8FDB1BF61A002750
:101E90002B46D8E7BDE8F0875F8F0008A5920008C1
:101EA00008290A4617D8836893F83E10914212D049
:101EB00083F83E208368082AD3F8743205D0990647
:101EC00009D50549406904F040BB9B0603D5034989
:101ED000406904F03ABB70479998000821880008CF
:101EE00038B50D4609780446FFF7DAFF6A78072A05
:101EF00011D8A36893F83F1091420CD083F83F208B
:101F0000A368D3F874329B0605D560690249BDE821
:101F1000384004F01ABB38BDA2980008F8B58368B1
:101F2000B3F850200446002A55D0B3F852100029C7
:101F300051D0553103F156050B441846A84206D33B
:101F4000014611F80169202E3CD0A8423CD286B24D
:101F50009DB2AB1B9BB2591C471CD21A0144384698
:101F600006F034F9A268B2F85030711B13FA81F30D
:101F7000A2F85030A368B3F850201344002283F82D
:101F8000562009B2204604F04AFBA368D3F8743205
:101F90009A0603D51049606904F0D7FA3B460F4A08
:101FA0000821204604F05BFC2046FFF7FFFEA368F3
:101FB000D3F874329B060ED560690949BDE8F84034
:101FC00004F0C3BA0846B9E7014611F80169202EAA
:101FD000BDD00846B9E7F8BD26880008A5920008DC
:101FE0002A8800082DE9F04104460D4617460AB13B
:101FF000FFF7DCFEA368B3F85220D3F87412563210
:1020000013444A0721D51846FEF74EF9DFF84880F9
:102010000646A6B9A368B3F85020A3F85220A068DA
:1020200004F0A0FA20B107B115B16069FFF7CAFE4C
:102030006942204609B2BDE8F04104F0F0BA606997
:10204000414604F082FA013EE3E7044A08212046B3
:1020500004F005FCDEE700BF3FA00008A5920008E1
:1020600013B583688DF80710D3F874220446D0079F
:1020700025D5B3F85210B3F850208A421FD0481C1F
:10208000A3F852000B449DF8072083F85620A3685C
:10209000D3F87412890710D5D3F8743260690B49EC
:1020A00013F0040F18BF2A2204F04FFA204604F060
:1020B0006BFA10B16069FFF785FE02B010BD012216
:1020C0000DF10701204604F0D7FBF6E796980008CB
:1020D00010B504468368094A022104F0C0FBA368D6
:1020E000D3F874329B0707D52046FFF79DFE2046A4
:1020F000BDE8104004F06EBA10BD00BFA592000804
:10210000014904F03CBC00BFBC9100082DE9F04F30
:102110000E46002189B0044617460D4603AA3046F4
:1021200001F10108FFF7DEFDB0B995B127B13A46DC
:102130000821204604F093FB1E4FDFF87C90DFF867
:102140007CA0002103AA304601F10108FFF7CAFD77
:1021500060B909B0BDE8F08F006810B1FEF7A4F8CF
:1021600080B2854238BF05464146D7E703688BB148
:102170001A787AB1D0F804B04A46CDE90053082164
:102180003B46204604F06BFBBBF1000F04D16069B5
:10219000FFF7B6FF4146D5E7524620463B460821A9
:1021A00004F05DFBAA1D92B25946204604F0F4FBF0
:1021B000F0E700BFC5980008AB980008B298000887
:1021C000F7B50F6805460E46A7B13846FEF76CF81E
:1021D00084B2094B00932846084A3B46082104F084
:1021E0003EFBE21C716892B2284603B0BDE8F040A5
:1021F00004F0D2BB3C46ECE7C1980008A696000864
:1022000010B507490446FEF73DF838B105492046A8
:10221000FEF738F8B0FA80F0400910BD0120FCE765
:10222000B7980008BA98000810B58368D3F87432DC
:102230009B06044603D50649406904F024FCA368C4
:1022400050225A87A36818221A87002010BD00BFA9
:102250002E88000808B5836902491A6803F0F4FE65
:10226000002008BDC89800082DE9F3410D490E4C27
:102270000E4EDFF83C80054603F0E6FE0022B44235
:1022800002F1010703D3002002B0BDE8F081236A08
:102290000093A36892B24146284603F0D5FE2C3441
:1022A0003A46ECE7D8980008E08600080C8700085A
:1022B000F098000808B5024903F0F0FE002008BDC0
:1022C000BD91000873B50E4E04460025A268E06873
:1022D0000DF1060302F5AB72012104F084FCBDF898
:1022E0000600A36840B12A4603F5AB733146204689
:1022F00003F0AAFE0135E9E783F8560102B070BD8C
:102300000199000810B5044603F0F5FE03490246A2
:10231000204603F099FE002010BD00BF1A9400086B
:10232000022907B50BD15368009312680B4B0C4977
:1023300003F0A6FE6FF0150003B05DF804FB8368A0
:10234000084AD3F87432084913F0020F074B18BF3C
:102350001A4603F079FE0020EEE700BF0F9900084F
:10236000249900080B9900082D990008B5900008E1
:1023700010B58368D3F874329A06044603D507492A
:10238000406904F080FBA368D3F874329B0603D540
:102390000349606904F077FB002010BD3588000810
:1023A0003A880008F0B5012985B004460AD0536880
:1023B000009312685D4B5E4903F062FE6FF01500FA
:1023C00005B0F0BD8368D3F87432990603D5594936
:1023D000406904F058FB6FF0F9012046FFF7F8FC64
:1023E000FA212046FFF70AFDA06800254FF480720D
:1023F000294600F5AB708DF80B5005F001FF4E49F2
:10240000606904F040FB606903F083FE4FF47A7664
:102410006068036801221F690DF10B0103ABB84727
:10242000039BEBB9013E4FF47A70B6B205F0C3FAE4
:10243000002EEDD1A368D3F874329B0603D53F4933
:10244000606904F020FBA3683D4950225A87A368C5
:10245000182220461A8703F005FE6FF00700AFE749
:102460009DF80B20A3681B2A53D093F856111B2903
:10247000CED1522A4DD15A19002382F85631A6687E
:1024800096F857215B2A2BD106F25710022510F837
:10249000011F2A463B2905F10105ADB223D1FF2AD0
:1024A000C8D002F5AB7216FA82F1002211F8010FC2
:1024B00018BB86F85601FA2AA16828BFFA224A8773
:1024C000FA2BA26828BFFA231387A368D3F87432C3
:1024D0009A0603D51949606904F0D5FA00206FE720
:1024E00086F85631A6E703EB8303303901EB43014D
:1024F000B5F5807F8BB2CAD19CE7013502EB820231
:10250000ADB2303800EB4200B5F5807F82B2CDD15C
:1025100090E72B440135ADB2092D83F856217FF6A3
:1025200077AFA368002283F8562183E70F9900084C
:102530002499000840880008789900084488000819
:102540003E9900082DE9F04F074689B015468946A7
:1025500021B1104604F0ECFB00285BD1032455E0C8
:102560005C463CE029460AF5AB7005F0B4FD064632
:10257000002854D0FDF798FE82B2601C013231462B
:10258000304405F023FE22465946304605F010FE41
:102590004FF020033355BAF8543001331C44AAF8E5
:1025A000544008F10108002401994B1C03AA484635
:1025B0000193FFF797FB0646E8B1316800222846F1
:1025C00004F065FD0028EFD1D6F800B0D7F808A0D8
:1025D000BBF1000FC4D05846FDF766FE84B2BAF8CE
:1025E00054302344FF2BBDDD0E4A2B4603213846D1
:1025F00004F035F90124B8F1000F07D0B8682A4675
:1026000000F1540100F5AB7003F0B3FE204609B0B1
:10261000BDE8F08F4FF0000841460224C5E70224D0
:10262000E9E700BF409E000830BFFFF7FDBF00BFD5
:102630002DE9F0410B4EDFF8308006EB0807CC1B8C
:10264000054632460949204605F0B2FDA01942462A
:102650000021083C05F0D4FDC5F8A84007F10800AA
:10266000BDE8F0810000000008000000FC870008C1
:10267000074A936893F90E10002907DB52699342C9
:102680001FBF044A536843F080535360704700BF34
:10269000640A002000ED00E070B5264B15469A6AEA
:1026A00012F0100F9A6A14BF1124102412F0080FB0
:1026B0009A6A18BF1224920706460AD5586B9A6A7E
:1026C000140634D519B19A6A22F080029A62132452
:1026D00001E06FF01500174B9A6A12F0010F9A6A29
:1026E00018BF142412F0200F9A6A18BF1524D206BE
:1026F00002D49B6A9B070AD50E4B5B68190506D569
:10270000314600F027FA10B180F309880224094B02
:102710009A6A920642BF5A6A22F400525A629A6A30
:1027200042F0FF029A6200232B70204670BD6FF0CA
:102730001500CCE700ED00E0134B9A6A12F0007F21
:102740009A6A14BF1E201D2012F0807F9A6A18BF5B
:102750001F2012F4002F9A6A18BF212012F4802F34
:102760009A6A18BF222012F4003F9A6A18BF2320E9
:1027700012F4803F9A6A6FEA02426FEA12429A624A
:1027800018BF2420704700BF00ED00E010B5194BC2
:102790000246986A9C6A10F4805F14BF17201620C6
:1027A00014F4006F9C6A18BF1820A40509D5986B13
:1027B000986A000404D51AB19A6A22F400429A6217
:1027C00019200C4B9A6A12F4806F9A6A18BF1A206B
:1027D000D2050CD49B6A13F4005F18BF1C20054A75
:1027E000936A43F47F43936200230B7010BD1B2058
:1027F000F5E700BF00ED00E0F0B5484B5B688BB03B
:102800000446C3F30803002585F31188BFF36F8FD7
:1028100002F07F40B0F17F4F11D102F00C00082888
:102820000DD010074CBF0C4601250022033B8DF84C
:102830000720032B05D8DFE803F0246367602C46EC
:10284000F3E700239DF80720CAB902AE04F1200780
:1028500020686168324603C20834BC421646F7D18C
:10286000099A002D54D0C2F3080121B96FEA52220F
:102870006FEA4222099202A9184604F09EFA0BB0B0
:10288000F0BD264BDA6A9107DBD4DA6A002AD8DB7E
:10289000DA6A5200D5D55A69A16942F480725A6148
:1028A000BFF34F8FBFF36F8F5A6931F8021C22F4C8
:1028B00080725A61BFF34F8FBFF36F8F4DF6027274
:1028C00091420AD09A6AD2B24AB10DF107020121AF
:1028D0002046FFF7E1FE0346B4E72368B2E79A6AB1
:1028E00012F47F4F05D00DF107010120FFF74EFFD5
:1028F000F1E79B6AB3F5803FA3D3FFF71DFFEAE73B
:102900000DF107020021E3E70DF107010020EDE7DB
:1029100022F4FF7222F00102ACE700BF00ED00E0FC
:10292000044B5A6942F010025A615A6922F00802B7
:102930005A61704700ED00E0EFF30880EFF3098182
:1029400001B57246FFF758FF01BD00BF102080F3AC
:1029500011880B484FF0AA014FF4046205F068F8A3
:1029600007484FF40461401880F30988EFF314809E
:102970000221084380F31488BFF36F8F00F0AAF898
:1029800040130020084B9B6883420BD1EFF3058373
:1029900043B1064B5A6842F080525A605A6A22F498
:1029A00000425A6205F058B9640A002000ED00E0C8
:1029B0000A4A93686FF00A01C3F8B0100849C3F8D7
:1029C000AC004B6843F080534B60002383F31188C5
:1029D000BFF36F8F9368D3F8B0007047640A00208C
:1029E00000ED00E010B50446EFF31183102383F3EC
:1029F0001288BFF36F8F0C4B586998600B4B4FF0E8
:102A000000625A600A4BD0F8A8201A600022D0F861
:102A1000AC30C0F8AC2083F31188BFF36F8F00F0A7
:102A200005F9204610BD00BF640A002000ED00E05B
:102A3000FC0800200B498A684FF030001044EFF387
:102A4000098C80E8F01F74467046FFF7CBFFA6465E
:102A500004498A6802F1300090E8F01F8CF309887D
:102A600070470000640A00201EF0040F0CBFEFF353
:102A70000880EFF30980816911F8021C0229FFD058
:102A800001B504F0A0F901BD40B2002807DB044AFB
:102A90004109012300F01F00834042F821307047B4
:102AA00000E100E040B20028A8BF00F1604001F161
:102AB0000101B8BF064B4FEA0111ACBF00F5614000
:102AC00000F00F00C9B2B4BF195480F8001370476A
:102AD00014ED00E00F4A08B50F4B22F07F029A6018
:102AE000BFF34F8FBFF36F8FD3F8882022F47002AB
:102AF000C3F88820EFF3148323F0040383F31488CE
:102B0000BFF36F8F01F02AFA02F092F800F064F838
:102B100001F06CFA0000000800ED00E042F8203CF3
:102B2000009B42F81C3C0A49019B42F8183C029B5E
:102B300042F8143C21F001014FF0807342F8043C4C
:102B400042F8081C0023203A0265C0F8AC307047F8
:102B5000990600080A4A0346906878B113F1160FE7
:102B6000D0F8980005D0A0F140029A4205D88342DF
:102B700003D2814228BF002070470020704700BF69
:102B8000640A002008B515460C4A0D4B9060D0F839
:102B9000A8201A600E4600F049F82C4686F30988F2
:102BA0004FF00000074B984720464FF000014FF0D0
:102BB00000024FF00003044C204700BF640A0020CD
:102BC000FC080020E56D000899060008014B102262
:102BD0001A61704700ED00E0044800231021C2187C
:102BE00001335B2B82F80013F9D1704700E100E05C
:102BF00008B5EFF30583064A103B02EBC30152F818
:102C0000330049688847BDE80840FFF731BD00BF81
:102C100008840008024B034A0348012100F078B8F9
:102C20000000052000000020FC8B0008D0F8982050
:102C3000054B403A1A60054A4021C3E90112184683
:102C4000012100F06FB800BF0009002000000B1543
:102C5000084AC2F898000B6823F01F03034343F0AF
:102C60001003C2F89C308B6843F00103C2F8A03017
:102C7000704700BF00ED00E02DE9F043DFF8608011
:102C800085B00E461F4604464FF00009B14523DAD1
:102C90006068D8B13FB1411E08421BD11F2819D925
:102CA0002368194216D12368019304F0AFF8A36892
:102CB00003430393D8F89050C5F30725D0B2013DE4
:102CC000A84207D801A9FFF7C3FF421C09F1010977
:102CD0000C34DBE76FF01502104605B0BDE8F08359
:102CE00000ED00E0044B0522C3F89420BFF34F8FA2
:102CF000BFF36F8F704700BF00ED00E0BFF35F8F41
:102D0000024B0022C3F89420704700BF00ED00E0A2
:102D100010B5034C01232278FFF7AEFF207010BDE1
:102D2000C30A002008B50B4A00231278FFF7A4FF5E
:102D300010F1160F07D0084A0021D2F89030C3F3E3
:102D40000723984200DB08BDC2F89800C2F8A01023
:102D50000130F2E7C30A002000ED00E02DE9F04366
:102D6000534B544CD3F890302568C3F307239D424E
:102D700085B000F29A80FFF7C1FF00200C26854243
:102D80001AD14D4C4D4F25706846FDF7C1FCDFF858
:102D90002081DFF82C9106460025AE4213D123781E
:102DA00043490020D1F89020C2F30722934276DBFA
:102DB000FFF798FF002042E0616806FB0011FFF773
:102DC00047FF0130DBE7009800EB05114FEA051CD7
:102DD000CB683B40B3F5000F48D00AD8B3F5001FCD
:102DE00030D0B3F5800F36D0B3F5801F10D0013549
:102DF000D3E7B3F1807F42D0B3F1007FF7D150F831
:102E00000C3088684A6804F001F840F4802009E03A
:102E100050F80C3088684A6803F0F8FF40F088509A
:102E200040F43020CDE901230390D8F89030207889
:102E3000C3F30723013B98422AD96FF0150005B070
:102E4000BDE8F08350F80C3088684A6803F0DEFF74
:102E500040EA0900E6E750F80C3088684A6803F059
:102E6000D5FF40F0E06040F40030DBE750F80C3074
:102E700088684A6803F0CAFF40F08270D2E750F8D1
:102E80000C3088684A6803F0C1FF40F08870C9E7D9
:102E900001A9FFF7DDFE237801332370A7E7C1F80E
:102EA0009830C1F8A00001337CE74FF0FF30C6E74F
:102EB00000ED00E0088C0008C30A00200000F0FFCD
:102EC0000000081108B5024B1B689847002008BD98
:102ED0000C090020034B044A1860937843F0020366
:102EE000937070470C09002044000020F0B587B0B3
:102EF00007460E4614460021102268461D4605F07E
:102F00007FF902238DF802302A46054B01932146B2
:102F10006846CDE9047602F0D9FA07B0F0BD00BFEB
:102F20002D6E000808B50649064821F00701C1F1D9
:102F3000005202F5A02202F0AEFD002008BD00BF45
:102F4000872700201009002008B500F0B7F80A49CB
:102F500041610A490122C0E900220A6008490A6069
:102F6000084A00231360084A03611360C0E9023372
:102F7000064A136008BD00BFBD9100087000002024
:102F80006C00002024090020200900201C090020DA
:102F90002DE9F04107460E46154600F08FF8C3684C
:102FA00004461BB943691A78002A41D10023E36023
:102FB0006368BB4256F8232008DB324B636120462E
:102FC00000F062F84FF0FF30BDE8F081511C616104
:102FD00092F80080B8F12D0FEFD1911C616151780A
:102FE000A1602D2904D192786AB901336360E4E7C6
:102FF00049B9244B63614146284605F031F8002861
:10300000DDD0C4F80880D4F808802846414605F091
:1030100027F8B8F13A0F636900D070B91B7813B97B
:10302000636801336360204600F02EF83F20CBE751
:103030005A1C42611B788360E5E742783A2A0BD03C
:10304000002222611B7813B9636801336360204654
:1030500000F01AF8A068B7E718786268094928B93B
:1030600001329742626004DD56F82230C4E904312F
:10307000EAE761612D783A2D2046D5D100F004F8B9
:103080002846A1E7BD910008074B02681A60074B6C
:1030900042681A60064B82681A60064BC2681A6062
:1030A000054B02691A607047700000206C00002018
:1030B00024090020200900201C0900200048704736
:1030C000540000202DE9F0410F4E104F054600241A
:1030D0004FF001082A781319DBB208FA03F073697C
:1030E00030EA030309D152FA84F3706157F83320B0
:1030F0001AB107EBC303596890476A780134E3B209
:103100009A42E7D2BDE8F08100040140280900207E
:10311000044B184400230133994200F8012BFADCD8
:10312000704700BFD000002007B506220121002013
:10313000FFF7EEFF002211460620FFF7B3FC012146
:1031400008460722FFF7E4FF002211460720FFF799
:10315000A9FC082201210220FFF7DAFF0022114614
:103160000820FFF79FFC092201210320FFF7D0FF71
:10317000002211460920FFF795FC0A2201210420B4
:10318000FFF7C6FF002211460A20FFF78BFC05213E
:1031900008461722FFF7BCFF002211461720FFF751
:1031A00081FC282206210A20FFF7B2FF00221146E7
:1031B0002820FFF777FC074A92E803006B4683E874
:1031C00003000548826819461268904703B05DF80D
:1031D00004FB00BFFC870008DC820008034660B1E6
:1031E000B0FA80F2C2F11F02D2B205498856054AF0
:1031F00011680B431360FFF747BCFF22F5E700BFE0
:10320000D000002000040140024A136823EA0003B2
:103210001360704700040140032921D8DFE801F062
:10322000020C10190F4B9A6822EA00029A60DA68C1
:1032300022EA0002DA6070470A4B9A680243F5E717
:10324000084BDA680243DA609A6822EA00029A6060
:103250007047044B9A6802439A60DA681043D8605A
:10326000704700BF0004014030B5B0B1B0FA80F340
:10327000C3F11F03DBB20B4850F833408C4204D13A
:1032800000EBC3056D68954205D044B940F8331092
:1032900000EBC3004260002030BDFF23EBE76FF07E
:1032A0000F00F9E72809002060B1B0FA80F3C3F1FC
:1032B0001F03DBB2044A002142F8331002EBC302C1
:1032C00051607047FF23F5E72809002000F0030252
:1032D000043292000F23934043EA900000F003036E
:1032E0000233064A52F82320030C02EA104093FAF4
:1032F000A3F3B3FA83F3D840704700BF0000014046
:10330000024B1868C0F38020704700BF00100240D5
:1033100010B5214B18680B68072B144615D00A2BE3
:103320000AD893B1013B092B0FD8DFE803F016153B
:103330002D3032150E192127582B0ED008D84C2BC2
:103340000BD0502B09D0482B07D06FF0850006E03A
:103350005C2B02D0602BF7E700202060002010BD1E
:1033600000F0C0F8142358430723B0FBF3F0F4E750
:1033700000F0B8F8142358434008EEE700F0B2F824
:10338000142358438008E8E74FF4FA40E5E7034880
:10339000E3E70348E1E700BFBC0000200024F4009D
:1033A000006CDC02F8B54B4F4B4C00F0B1F83846DE
:1033B00003F00CFF00F094FCA368484AC3F3031326
:1033C0001578D35C47FA05F520FA03F6AE4202D22F
:1033D000284600F0D3FCFFF793FF012807D02368AD
:1033E00043F480732360FFF78BFF0128FBD1D4F8EF
:1033F000943043F00103C4F89430D4F89430990722
:10340000FBD5D4F8983043F00103C4F89830D4F8D1
:1034100098309A07FBD5A36803F00C030C2B1AD144
:10342000FFF76EFF012807D0236843F48073236001
:10343000FFF766FF0128FBD1A36823F0030343F0E5
:103440000103A360A36803F00C03042BFAD1A36863
:1034500023F0F003A360236823F080732360E36804
:1034600023F0605323F4003343F06053E360E368D8
:1034700043F48033E360E36823F4C003E360E3686C
:1034800043F48013E36000F031F8236843F0807365
:10349000236023689B01FCD5A36823F0F003A3609D
:1034A000A36843F00303A360A36803F00C030C2B91
:1034B000FAD1AE4202D3284600F060FC084B1F60F0
:1034C000A36823F4E063A360A36823F46053A360BC
:1034D0000020F8BD00B4C40400100240999F000809
:1034E000BC000020004870470024F400054B06494A
:1034F000DA681140054A0A43DA60DA6842F08072FD
:10350000DA607047001002408C80FFF9021400025C
:10351000064B9A6D42F080529A659B6D82B003F023
:1035200080530193019B02B0704700BF001002401E
:1035300008B5074804F04EFA38B10648FFF7CAFC50
:103540000448FDF78BF8002008BD6FF01200FBE780
:10355000E0830008593500080A2838B5074D0446AD
:1035600004D1AB680D215B6828469847AB680348D7
:103570005B68E1B29847204638BD00BFE083000891
:103580002DE9F843D0F80480D0F81090D8F808005E
:1035900017460D461E4603F07DFDB7F5001F044695
:1035A00016D12846D8F80840FFF790FE84420CD187
:1035B000294603F06FFD0446FFF726FE2046FFF77D
:1035C00073FE00212046FFF727FE0020BDE8F883A8
:1035D000B7F5800F20D0B6F1806F19D0B6F1C06F6B
:1035E00018D0B6F1007F1AD1022610494A4620466B
:1035F000FFF73AFEB0B9D8F80810284603F04DFDA1
:1036000020463146FFF708FE2046FFF7E7FDDCE7DE
:103610000126EAE70326E8E76FF08500D6E76FF0BA
:103620001500D3E76FF00F00D0E700BF87740008E4
:1036300038B50369044658600A4D284604F0CAF9B3
:1036400068B1094A536843F4007353606168AB681A
:103650000C311B682846984700EAE07038BD6FF0CF
:103660001200FBE7DC820008007000402DE9F04703
:103670001E4F044600EBC1060025B44201D10020D4
:1036800014E02068C30600F01F0911D4656845F0F6
:103690002005C0F3481AC0F344200F2823D857F858
:1036A0002080B8F1000F0DD16FF01200BDE8F08757
:1036B000B9F1100F04D0B9F1110FEAD16568E8E74C
:1036C0003025E6E7404604F085F90028ECD04B466B
:1036D0002A460AF00F01404603F0EBFE002804F1F1
:1036E0000804CADAE2E76FF01500DFE7208D000872
:1036F000012912D0022907D089B90068094BC01AE4
:1037000018BF0120000370470068064B984214BFA1
:103710004FF440504FF400507047002070474FF472
:10372000005070470080004043681B6803F10802A6
:1037300052E8002F42F0010203F1080040E80021A6
:103740000029F3D10F4A93420FD0A2F5744293425D
:103750000BD002F58062934207D002F5806293425B
:1037600003D002F58062934203D15A6842F04002CE
:103770005A6053E8002F42F4807243E80021002988
:10378000F7D170470038014043681B6803F1080215
:1037900052E8002F22F0010203F1080040E8002166
:1037A0000029F3D10F4A93420FD0A2F574429342FD
:1037B0000BD002F58062934207D002F580629342FB
:1037C00003D002F58062934203D15A6822F040028E
:1037D0005A6053E8002F22F4807243E80021002948
:1037E000F7D1704700380140F7B5026943681068A7
:1037F0001D680C46D9688368DB68CBB101AA98477D
:10380000002815DB114B9D424FEA540012D10023D2
:10381000019F19464FF480762246E7FB0601FCF72C
:1038200017FD0B4BA0F540729A4201D804B1E86035
:1038300003B0F0BD2B6823F400432B60019B1844B8
:10384000B0FBF4F189B2E960F2E700BF008000400C
:10385000FFFC0F002DE9F3410469476806464E4816
:10386000206004F0B7F820B96FF0120002B0BDE894
:10387000F0812068F96883681B6898470028F5DBA9
:10388000386A01AA002103F029FE0028EEDB019B23
:10389000002219791868FFF7E9FE0028E6DB756851
:1038A00033692C68D3F80480236823F00103236074
:1038B000686804F08FF80028D6D0D5E90101836844
:1038C000DB6803B1984754E8003F43F00C0344E839
:1038D0000032002AF7D14146304603F0FBFE2B7D33
:1038E0001BB1A36843F00803A3606B7D1BB1636841
:1038F00043F400436360AB7D1BB1636843F48033E2
:103900006360EB7D1BB1636843F4003363602B7E1F
:1039100083B3224B9C4213D0A3F574439C420FD037
:1039200003F580639C420BD003F580639C4207D073
:1039300003F580639C4203D003F540539C4228D199
:1039400073681A68936843F48043936023686A7EBF
:1039500023F0787343EA425323602368AA7E23F45A
:10396000F81343EA02432360EB7E1BB1A36843F4E0
:103970000043A360236843F001032360E3699A02D4
:10398000FCD5E3695B02FCD530467B6A9847002092
:103990006CE76FF0150069E7DC8200080038014031
:1039A0002DE9F84306460A794068336904685F6880
:1039B000012A0D4658D0931ED3F1000848EB0308A6
:1039C0004FEA88286979FFF793FE95F80690B9F1D8
:1039D000020F03464BD0B9F1040F4CD0002A54D04B
:1039E000033A012A49D94FF48050B3F5805F4ED095
:1039F000B3F5405F4DD0002B0CBF01230323994248
:103A00003BD1414603F0B5FD814536D1EB79C3B1D9
:103A1000012B40D1214B9C4213D0A3F574439C420F
:103A20000FD003F580639C420BD003F580639C426A
:103A300007D003F580639C4203D003F540539C42BA
:103A40001BD1236823F0010323602946304603F08D
:103A500041FE236843F00103236095E8030087E8F3
:103A600003000020BDE8F8834FF4C068AAE73AB924
:103A70004FF08050B9E7002AB5D06FF08500F1E72C
:103A8000033A012AF9D90020AFE71046ADE7002339
:103A9000B5E70223B3E7032BBCD0EEE700380140C3
:103AA00010B54FF0E0230F499C691A6908689B69BB
:103AB0000D4902F4803234B993B903464AB90A6811
:103AC0001044C01A10BD002B08BF03460AB9A34218
:103AD000F5D90A6802440A604FF0E0221269EEE765
:103AE0000446F3E7600A00205C0A00200A4B10221B
:103AF00083F82320094B4FF4FA521A60084B002038
:103B000018604FF0E02341F63F725A6198611A69DC
:103B100042F007021A61704700ED00E0600A0020E1
:103B20005C0A0020684620F007018D4619B5FFF7B2
:103B3000B7FF114B1149D3E900420868001942F15F
:103B40000002C3E900020E4A00230B60D2E90041E3
:103B50004FF4FA53001BB0FBF3F043431B1941F140
:103B60000001C2E9003101F03DF9FEF781FDBDE839
:103B700019408546704700BF980200205C0A00206B
:103B8000900200202DE9F041DFF8DC8099B1421C61
:103B90000BD14FF0E022136923F0010313614FF0C2
:103BA0007F43C8F80030BDE8F081D8F800600128F4
:103BB00007DC00270BE0431CD8F80060F7D14FF476
:103BC000036040F631039842A8BF1846471EEFF342
:103BD0001185102383F31288BFF36F8FFFF760FF07
:103BE000224C4FF0E0239969D4E90023801843F177
:103BF0000003C4E900031E4B00221A601D4B1A6823
:103C0000831A2ED44FF4FA5C0CFB073303F5F953F7
:103C10001F33B3FBFCF7131A0CFB0733B3F5806FAC
:103C2000154A38BF4FF48063934228BF13464FF0C4
:103C3000E022C8F80030013B906953610023936192
:103C40008142A1EB0003D4E9001238BF9B195B1835
:103C500042F10002C4E9003285F31188BFF36F8F8F
:103C6000A1E74FF48063E2E7600A00209802002099
:103C70005C0A00209002002000DCFF0038B5EFF362
:103C80001185102383F31288BFF36F8F084B1C68D4
:103C9000084B1B68E41AFFF703FF85F31188BFF395
:103CA0006F8F4FF4FA532044B0FBF3F038BD00BFE0
:103CB000980200209002002038B5EFF31185102300
:103CC00083F31288BFF36F8F044B1C68FFF7E8FE85
:103CD00085F31188BFF36F8F204438BD9802002010
:103CE000224B9A68D96812F00C0205D00C2A15D123
:103CF00001F00301012918D119681D48090755BFB2
:103D0000D3F894101968C1F30321C1F3031150F8DB
:103D1000210012B10C2A09D000207047042A22D0B9
:103D2000082A144818BF002070470020DA6802F003
:103D30000302022A15D00F49032A08BF0846D96892
:103D4000DA68C2F306224243D868C0F34160C1F387
:103D50000211013001314000B2FBF1F2B2FBF0F090
:103D600070470548EBE70448704700BF0010024069
:103D7000B08E000800127A000024F4001F4B421E8F
:103D80009A4201D9012070471D4B1B6803F4C063A0
:103D9000B3F5007F0FD11B4B98421AD81A4B9842AB
:103DA00027D81A4B984226D8194B984294BF002323
:103DB0000123002011E0174B98420CD8A3F5F4031F
:103DC000A3F59053984214D8134B984213D8134B31
:103DD000EBE70423EDE70023012011490A6822F0F4
:103DE00007021A430A600A6802F007029342C9D127
:103DF00070470323DDE70223DBE700BFFFB3C40402
:103E0000007000400090D003006CDC020048E80124
:103E10000024F40080BA8C01001BB700808D5B0089
:103E200000200240034A044B02609B1A1420B3FB9B
:103E3000F0F07047DC8200080884000838B5EFF322
:103E40001185102383F31288BFF36F8F064B9C6894
:103E500003F0D3FD85F31188BFF36F8F2046BDE8D3
:103E60003840FEF78FBD00BF640A002038B5094B0B
:103E700053F82040013053F82050A54200D838BDF7
:103E8000636823B1204603F0BBFD0834F5E72368DF
:103E90009847FAE7E08E000870B52B4B2B4C2C4D61
:103EA000012286B003201A70FFF7E0FF01F09AF8B4
:103EB00003F0C2FD0420FFF7D9FF2646AE4204F10D
:103EC000300410D300F0DCFC204C224EAC4226D350
:103ED00000F0EAFCFCF7B0FB1F4A137B23F0010360
:103EE000137306B070BD54F80C3C059354F8103CA5
:103EF000049354F8143C039354F8183C029354F878
:103F00001C3C019354F8203C009354E90A2354E9E3
:103F10000C0100F00BFA54F8303C5E65CDE7D4E9B3
:103F20000A23B3F1FF3F08BFB2F1FF3F05D052EAC9
:103F30000301206803D103F0A2FD3034C6E7314607
:103F4000183000F0D5FEF8E7C40A0020E08600082B
:103F5000E0860008DF7B00085803002008B503480E
:103F6000034A0021121A03F063FD08BD000100207E
:103F7000C80A002070B5174E174D184986B0B823EF
:103F800003FB0066164B059301220F23CDE9033294
:103F90000023CDE90133142303FB005504464FF4FD
:103FA000C07000FB04110F4B00954FF4A072304617
:103FB00000F0BCF9737B0C4AEE6023F004037373CA
:103FC0004FF4046304FB033313442C746B6006B09A
:103FD00070BD00BFA0020020640A0020801B0020EA
:103FE000A99F00083B7A000840130020BFB50020BD
:103FF000FFF73CFF2C4B83F308882C4D2C4E6B694C
:104000002C4F43F400736B610024F02385F82230B9
:10401000EC772C766C76AC7685F820406B6A43F4AE
:10402000E0236B62FEF77CFCFEF7D0FD4FF0FF3320
:10403000AB62EB62FEF792FEFEF7ECFD1E4BB36047
:1040400040F201129A81C3E92644C3F8A44003F068
:10405000C0FCFCF745FB0120FFF708FF0220174DCD
:10406000FFF704FF00F054FC154B75610593012325
:1040700014490094CDE903434FF480623B46CDE9F7
:104080000144284600F052F96A7B064622F00402F9
:1040900028466A7303F049FD2046FFF76BFF3A4656
:1040A00031462846FEF76EFD801B002000ED00E043
:1040B000640A0020993E00081004002058030020E4
:1040C000AE9F0008001D00202DE9F341044617466D
:1040D0001E46EFF31188102383F31288BFF36F8F0E
:1040E000C368334A7BB180689168884219D057EA27
:1040F000060318D188F31188BFF36F8F6FF00F009C
:1041000002B0BDE8F081916891F90E102161013390
:10411000E3609368A36088F31188BFF36F8F00207A
:10412000EEE72169F2E791F90E1090F90E3099420D
:10413000A8BF19466FF07E029142B8BF11468B426C
:104140002DDD03F085FC0546CDE9007619482246B1
:10415000414600F0D7FA0028E1D0EFF31186102392
:1041600083F31288BFF36F8FA068D0B123682169F1
:104170009C420AD04BB193F90E309942A8BF194620
:104180006FF07E039942B8BF194603F061FC40B15D
:104190000848314600F030FB6FF00A00B0E7002518
:1041A000D2E7002DF4D186F31188BFF36F8FF3E7C8
:1041B000640A0020C50A002038B5836804466BB342
:1041C000194A926893422CD1C368012B03D9013B51
:1041D000C360002038BDEFF31185102383F31288EC
:1041E000BFF36F8F0169806803F032FC204603F053
:1041F00010FDA06060B190F90E2022610022C0F88D
:10420000B02003F092FC0948294600F0F5FAE0E7F7
:10421000E06085F31188BFF36F8FDAE76FF0150068
:10422000D8E74FF0FF30D5E7640A0020C50A002028
:1042300038B50446EFF31185102383F31288BFF3DA
:104240006F8F03F0E6FC50B10022C0F8B02003F0FD
:104250006CFC29460848BDE8384000F0CDBAD4E9E6
:1042600002329A4218BF0133A360022104F1100008
:1042700003F09AFEEDE700BFC50A002010B5044622
:1042800008B9054B9C681F2204F1780003F007FF72
:10429000002084F8970010BD640A00202DE9F74F34
:1042A0000C46D1B3CAB3477BDFF87480561E08466C
:1042B0006FB34FF000094D464FF0010A0AFA09FBAF
:1042C00017EA0B0F1DD0D8F80410721B8A4228BFC2
:1042D0000A46D8F80010019203F06AFF019A37EA03
:1042E0000B07154404EB050011D0A6EB050BBBF141
:1042F000010F28BF4FF0010B0A495A4603F058FF3F
:104300005D4409F1010908F108086019D6E70023A6
:104310000370204603B0BDE8F08F0348FAE700BF02
:10432000F88E0008B39F0008BD9100082DE9F04FFA
:10433000D51D85B025F0070504461F467F3500F1E1
:104340005803C0E9163325F03F05129B2373002064
:104350000E46119BDDF838B0DDF84C80A0600421DA
:104360003F2DC4E906006173A373E07306F1400AB0
:10437000A5F1400905D880F31188BFF36F8F084677
:1043800002DF4A463544AA21504603F039FF294648
:104390002046FEF74DF90730109B20F00700C4E9D6
:1043A00026A9C4F8A00002930F9B2D1ACDE900B3F3
:1043B0002A463B4631462046FEF7B0FB0F9BE3669C
:1043C0004FF00009109BC4F85490C4E9197B23678F
:1043D000EFF31182102181F31288BFF36F8F104E1B
:1043E000316A6167346282F31188BFF36F8FB8F16D
:1043F000000F11D01F22414604F1780003F04FFE58
:1044000084F89790B3680BB1D3F8A430C4F8A43003
:10441000284605B0BDE8F08F84F87880F2E700BF49
:10442000640A0020F0B587B000250595109D04951D
:104430000F9D03950E9D0295DDE912760D9D019568
:104440000C9D00950446FFF771FFB6F1FF3F08BFD2
:10445000B7F1FF3F05D056EA070305D1204600F02B
:10446000DDF9204607B0F0BD03493A46334604F172
:10447000180000F03DFCF4E7DF7B000838B590F948
:104480000D20437B002A014604DA03F07F034373C7
:1044900003F008FB0D4D2A46AB6852F8184F9442C2
:1044A00000D004B9EC688B4207D05A7BD20604D105
:1044B000A26912B9DA897F2A05D8A34202D0204620
:1044C00000F01CFB23466B6138BD00BF640A00206E
:1044D00070B590F90D30427B002B30DBD1062ED128
:1044E000836963BB1C4C62F07F024273224652F820
:1044F000181F914218BF0B46E16923B9C0E900219A
:104500000860E0610CE090F90E5093F90E60B5423E
:1045100016D0AE4214DD5968C0E900310860586019
:10452000A569954200D005B9E568A3685A7BD20613
:104530000AD1AA6942B9DA897F2A05D9636170BDB7
:104540009942DBD01B68D8E7AB4202D0284600F086
:10455000D5FA6561F3E700BF640A00202DE9F8434E
:10456000002A427B0CBF4FF010094FF0080919EAEE
:10457000020F04460F4621D149EA0203D2092AD18B
:104580004373B9F1080F2CD04FF00008364E334674
:1045900053F8185F9D4200D005B9F568B368AB4287
:1045A00002D0284600F0AAFAB9F1100F756144D183
:1045B000BFF35F8F637B23F0600363732A4B9B68B9
:1045C000A3424BD1EFF30583002B47D13846BDE81A
:1045D000F843FEF7EDB903F07F03437303F062FA8B
:1045E000CFE7A36813B1204603F064FA04F1180082
:1045F00003F077FBA56D04F15806AE4211D04FF0E1
:10460000000875B1284603F055FA05F1180003F0CB
:1046100068FBC5F8B0802846FFF75AFFA56DAE428B
:10462000EFD1114B9B689C42AED1EFF30588B8F1F6
:10463000000818BF4FF00108A8E7204600F0B6FABE
:10464000B8F1000FB4D0094BB36040F201129A8167
:104650000022C3E92622C3F8A420A9E787F3118822
:10466000BFF36F8FBDE8F883640A002010040020B8
:1046700070B590F90D20437B002A014604DA03F05F
:104680007F03437303F00EFA4B7B1D4C63F07F03F3
:1046900022464B7352F8183FE069934208BF00234B
:1046A00023B9C1E900200160E1610CE091F90E50ED
:1046B00093F90E60B5421ED0AE421CDD5868C1E9C8
:1046C000003001605960A569A368954200D005B922
:1046D000E5688B4207D05A7BD20604D1AA6912B989
:1046E000DA897F2A05D8AB4202D0284600F006FAC4
:1046F0002B46636170BD9842D3D01B68D0E700BFE2
:10470000640A0020F8B5124B0C461146114A98680D
:104710001060DDE90676EFF31182102282F3128831
:10472000BFF36F8F9D68284603F0CEF9B6F1FF3FC7
:1047300008BFB7F1FF3F06D007493A46334605F1B7
:10474000180000F0D5FA2046BDE8F840FEF730B971
:10475000640A0020880A0020DF7B0008F8B50446C0
:10476000EFF31187102383F31288BFF36F8F437B1E
:10477000DA0649B219D18569BDB903F07F034373E5
:1047800003F090F9437B1B4E817363F07F03437307
:10479000334653F8182F9A4218BF1546F2695DB98F
:1047A000C4E900321460F46111E0A173002087F3C2
:1047B0001188BFF36F8FF8BD95F90E00814214D0B8
:1047C000884212DD6A68C4E9005214606C60B46902
:1047D0009C4200D004B9F468B3689C4202D02046E1
:1047E00000F08CF974610120E1E7AA42D8D02D686D
:1047F000D5E700BF640A002049B9EFF3058030B95E
:10480000054B5A699B689A4201D0FEF7D1B881F3F3
:104810001188BFF36F8F7047640A002010B5EFF363
:104820001184102282F31288BFF36F8F427B5107ED
:1048300004D484F31188BFF36F8F10BD22F00402FB
:104840004273FFF745FE21460248BDE81040FFF7DE
:10485000D3BF00BFC50A0020034648B9EFF3058265
:1048600032B9064A51699268914201D0FEF7A0B868
:1048700083F31188BFF36F8F704700BF640A002075
:10488000EFF31181102383F31288BFF36F8F054B71
:104890009A68D37B013BD37381F31188BFF36F8F89
:1048A000704700BF640A002070B5EFF31186102333
:1048B00083F31288BFF36F8F144DAB68DA7B01323C
:1048C000DA732A4652F8184F944200D004B9EC68C3
:1048D0005A7BD20604D1A26912B9DA897F2A05D897
:1048E000A34202D0204600F009F923466B6186F30B
:1048F0001188BFF36F8FEFF31180102383F31288B9
:10490000BFF36F8FBDE87040FFF7A6BF640A0020B9
:10491000024B03F11802C3E906227047640A002023
:10492000F8B5EFF31186102383F31288BFF36F8F6E
:104930001D4CA068437B03F07F03437303F0B2F880
:10494000A3685A7B214662F07F025A7351F8182FF0
:10495000E0698A4208BF002222B9C3E9001003605F
:10496000E3610CE093F90E5092F90E70BD4217D03E
:10497000AF4215DD5068C3E9002003605360A569AC
:104980008D4200D005B9E568A3689D4202D0284653
:1049900000F0B4F865613046BDE8F840FEF708B8AD
:1049A0008242DAD01268D7E7640A002050EA010395
:1049B0002DE9F04105460E4603D1FFF7B1FF002077
:1049C0002BE0831C71F1FF3329DB03F09FF92C18D6
:1049D000EFF31188102383F31288BFF36F8F124F08
:1049E000124BB8681860FFF749FDB86810492A46AD
:1049F0003346183000F07CF9BA68537B43F010035B
:104A000053734046FDF7D4FF03F080F9201A63EB9F
:104A10000303012873F10003D1DBBDE8F0816FF0DF
:104A20000104241AD4E700BF640A0020880A002089
:104A3000DF7B0008B1F1FF3F08BFB0F1FF3F08B5D1
:104A400006D10A4B986803F07FF84FF0FF3008BD9D
:104A5000FFF7ACFFC11709304FF00A024FF0000317
:104A600041F10001FBF7F4FBF1E700BF640A00200D
:104A7000014B9868704700BF640A0020D3B5DDE998
:104A80000667089CCDE90067FFF73CFE1CB1034BAD
:104A90009B685B69236002B0D0BD00BF640A002040
:104AA000044BC01A044BC0105843044B01221A5443
:104AB000704700BFC8040020ABAAAAAAC50A0020FC
:104AC000C3897F2B12D80A4B1B6863B1094B90F93D
:104AD0000E201B689A4209DB437BDB0606D1064B9E
:104AE000C31A18BF012303F0010070470023FAE73F
:104AF000900A00208C0A0020A002002070B50E4B06
:104B00000E4C1E7C06EB460304EBC3040546204610
:104B100003F0E7F80A4B002228469A55FFF7D0FF2A
:104B200048B1084B08491A68013A2046D317BDE836
:104B3000704000F0DDB870BD640A0020C804002099
:104B4000C50A0020900A0020A14A000838B5EFF3FA
:104B50001185102383F31288BFF36F8F104B114A16
:104B60009C681068A04206D1FFF7C8FF85F3118842
:104B7000BFF36F8F38BD00211B7C11600A4AD35CE4
:104B8000002BF3D02046FFF79BFF0028EED0637B7D
:104B9000DB0602D12046FFF76BFD2046E4E700BFAD
:104BA000640A0020880A0020C50A0020EFF3118162
:104BB000102383F31288BFF36F8F0A4A136A83426C
:104BC00007D15B6F136281F31188BFF36F8F70475A
:104BD0001346002BF7D05A6F8242F9D1426F5A67C1
:104BE000F1E700BF640A0020F8B506460F46EFF370
:104BF0001183102282F31288BFF36F8F0B490C6A66
:104C0000154624B983F31188BFF36F8FF8BD83F382
:104C10001188BFF36F8F39462046B047EFF31183F9
:104C200085F31288BFF36F8F646FEAE7640A002090
:104C300008B50648064A0749121A02F0FBFEBDE80D
:104C40000840054A0549064802F0F4BE000000206D
:104C5000FE00002044A000080000000044A000085E
:104C600000000020034B1B680BB9FFF707B80020BA
:104C7000704700BF940A002030B570B10B4B5B68E1
:104C800098420AD0036843B1D3E90421D0E904452E
:104C9000121941EB0501C3E90421D0E90032136088
:104CA0005A600023C0E9003330BD00BFC0000020BF
:104CB00010B50E4B1C689C4204D1FFF7D3FF6FF078
:104CC000004010BDFFF7CEFF002CF8D0D4E904322D
:104CD0001B1A62EBE072B3F1004F72F10001EEDAE1
:104CE000002AACBF18460020EBE700BFC000002040
:104CF000B3F1FF3F08BFB2F1FF3FF8B504461D46D0
:104D000016465ED08160EFF31187102383F312887B
:104D1000BFF36F8F013275F1FF3324DA2E49D1E9E9
:104D200000206FF001039B1A4FF0FF3262EB00008E
:104D30009E1B60EB0500012E70F1000301DA0126D5
:104D40000020C4E90460254ED6F800C07568B4455B
:104D500008BF4FF0000CBCF1000F0DD1C4E9006595
:104D60002C6074601CE0FFF77DFF013645F1000503
:104D7000361845EBE070E4E7DCE90420D4E90431BF
:104D8000934271EB000E1DDAD21ADCF8043060EBAE
:104D90000100CCE90420C4E900C31C60CCF8044045
:104DA0003368B34209D09C4207D10D4B1C6824B92B
:104DB000FFF77EFF2146FEF7E5FE87F31188BFF37C
:104DC0006F8FF8BD9B1A61EB0001AC45C4E904315B
:104DD000C4D0DCF800C0BEE7E0040020C000002022
:104DE000940A00202DE9F84FEFF3118C102383F380
:104DF0001288BFF36F8FDFF8B0A0DFF8B0902C4FB0
:104E0000C9F80000DAF800000024504508BF00206F
:104E10000025D7E90021D9F80030E04678B3D0E981
:104E2000046C4FEAE37EB3427EEB0C0B05DAF61A14
:104E30006CEB0E04C0E9046421E0B21841EBE671AA
:104E4000C0E90445C7E90021FFF716FF88F3118880
:104E5000BFF36F8F83689847EFF31188102383F3B4
:104E60001288BFF36F8FD9F80030DAF800009B1B6F
:104E70005045C446C9F80030CBD1D7E900219A1873
:104E800041EBE3730024C7E90023C9F80040FFF7B2
:104E90000FFF2146FEF776FE88F31188BFF36F8F70
:104EA000BDE8F84FFFF752BEC0000020940A002072
:104EB000E004002010B5EFF31184102383F312886F
:104EC000BFF36F8FFFF7CEFE054A0346D2E900011C
:104ED000181841EBE37184F31188BFF36F8F10BD95
:104EE000E00400202DE9F74F1D46274B9F68012362
:104EF00087F8603087F8613052EA050316460CBF28
:104F00000123002307F16002804602F080FF814602
:104F1000EFF3118B4FF0100A8AF31288BFF36F8FF3
:104F200097F860404CB901465A46404602F010FFDF
:104F30008BF31188BFF36F8F0BE0002387F860308D
:104F400056EA050309D18BF31188BFF36F8F6FF019
:104F50000A04204603B0BDE8F08FCDE900650B4A96
:104F60000B485946FFF7CEFB0446EFF311858AF351
:104F70001288BFF36F8F2A464946404602F0E8FE8A
:104F800085F31188D6E700BF640A0020C80000201E
:104F9000C60A002038B50346EFF31185102282F3CC
:104FA0001288BFF36F8FC160012181600068834266
:104FB00006D185F31188BFF36F8F0024204638BDDA
:104FC000D0E9003213605A600023C0E9003302F0D8
:104FD00096FF294604460248FFF70EFCEEE700BFA5
:104FE000C60A0020014800F0B0BD00BFEE9F0008D7
:104FF0001FB5094A92E8030002AB83E803004FF4AF
:1050000080620093054906484FF0FF3300F006F92F
:10501000002005B05DF804FB048800084021002052
:10502000E80400202DE9F043DFF8348185B005461F
:105030004FF0FF364FF0FF37EFF31189102383F362
:105040001288BFF36F8FD5F8B8408CB9022105F1F3
:10505000D00002F0D0FF002860D10023CDE9006726
:10506000029305F1C00249463E48FFF707FDE3E71A
:10507000D5F8BC202368C5F8B830944208BFC5F8FD
:10508000BC30D5F8D03043F00203C5F8D030E36827
:1050900023F0040343F00103E360636889F311889C
:1050A000BFF36F8F20469847EFF31189102383F3E6
:1050B0001288BFF36F8FE368D90623F0010237D45B
:1050C000E260E3689A071AD5D8F8000023F00203DB
:1050D000E360A0B10268002188B143689C4237D1E7
:1050E000036869BBD8F80420C8F80030824201D1B7
:1050F000C8F80430002340F8083BFFF799F8D5F8CA
:10510000D03023F00203C5F8D03089F31188BFF303
:105110006F8FDB0590D4FFF703FC8DE705F1C80422
:1051200000220121204602F0B9FD0028F8D194E7C1
:1051300023F01103E36004F11000FFF779F8C0E7F2
:105140000B60D8F80430834208BFC8F80410D1E7D8
:1051500022B11368014610461A46BDE71346F9E727
:10516000980A0020C60A0020F8B5C3689A070446CA
:105170000F46C3F340062CD45B071AD40B680BB957
:1051800083680B60E368DD0744BFA3683B603D684C
:105190004CBF02260126002D3AD01F4B9B68AB4224
:1051A0000AD0D5F8D030D807C3F3800214D46FF0FA
:1051B000120600233B6025E002F059FCD5F8D03000
:1051C0000028F0D1D907C3F3C002F0D552B15B0774
:1051D00008D46FF00F06ECE7002AFAD1C3F3C0033E
:1051E000002BF6D100232360D5F8BC3063B9C5E9A4
:1051F0002E44284602F00AFFE36843F00403E3600C
:105200003B68A3603046F8BD1C60C5F8BC40F0E7C1
:105210006FF01506CDE700BF640A0020F0B589B035
:1052200004460020C4E92E000E9D04F1C000C4E92C
:10523000300004F1C800C4E932004DB328790028D9
:1052400040F2011008BF0120C4F8D00000204FF048
:10525000FF364FF0FF37CDE90330CDE90100CDE94E
:1052600006670C4B00942046FFF7DCF855B129681F
:1052700011B12046FFF702F86B791BB1237B43F095
:1052800001032373204609B0BDE8F04002F0F7BBEC
:105290000120D9E7255000080FB407B5064B04AA32
:1052A000186852F8041B019200F010F903B05DF881
:1052B00004EB04B0704700BF288C00080CB430B574
:1052C00089B005460C461C22002101A802F098FF77
:1052D00002238DF806300E4B0293059523462CB120
:1052E000B4F1004F28BF4FF00043013B1D440DAA0D
:1052F0000C99069501A8009200F0E8F814B1059BFE
:1053000000221A7009B0BDE8304002B0704700BFFB
:1053100011820008242A2DE9F041044601D8012A0F
:105320004CD102F07DFF354B16221A5001B10C60B2
:1053300000273846BDE8F08135462E4616F8010BA9
:105340002028F9D0A0F10907042F0346F4D92B280F
:1053500036D02D2837D14FF0010C6B78AE1C302B96
:1053600038D1307840F0200078282FD132F010006A
:105370002CD173783446102202360CF100400138EB
:105380000027B0FBF2FE02FB1E08392B82BF03F19F
:10539000FF3343F02003263B303B9A421ED977452A
:1053A00002DC03D1984501D24CF0020C354607FBD4
:1053B000023715F8013B34462E46E6E70546BCE7C2
:1053C0004FF0000CC9E74FF0000CC8E7002A08BFF7
:1053D0000822D2E7002A08BF0A22CEE701B10C60FA
:1053E0001CF0010F18BF7F421CF0020FA1D007462E
:1053F00002F016FF014B22221A509AE70C0000001F
:10540000242AF0B5044601D8012A40D102F008FF51
:105410002D4B16221A5001B10C600020F0BD2F4612
:105420003D4615F8010B2028F9D0A0F10906042EFD
:105430000346F4D92B282CD02D282CD101267B789B
:10544000BD1C302B2DD1287840F02000782824D1A5
:1054500032F0100021D16B782C461022023500204A
:10546000392B82BF03F1FF3343F02003263B303B4F
:105470009A421AD9A0FB02040CB9C01801D346F015
:1054800002062F462C4617F8013B3D46E8E7074643
:10549000C6E70026D3E70026D3E7002A08BF082284
:1054A000DDE7002A08BF0A22D9E701B10C60F20744
:1054B00048BF4042B307B1D502F0B2FE024B2222F0
:1054C0001A504FF0FF30A9E70C0000002DE9F04F13
:1054D0008DB043680293837815469A07804640F161
:1054E0000D8100240E78002E00F00A81252E0BD0AD
:1054F0004B1C03930134029B4146304698470028D9
:10550000C0F2F6800399EDE74E788B1C252E0393AD
:10551000F0D00027B946BB46BBF11F0F38D8A6F123
:105520002003102B0AD8DFE803F02A090930090903
:10553000092109090928092D09091F00A6F13003CD
:10554000092B33D92A2E37D11BF0400F55F8043BD5
:1055500040F08280002BA7BF4BF0200B9946C3F18F
:1055600000094BF0280B01E04BF0010B039B13F8F3
:10557000016B0393002ECFD130E04BF0020B4BF0C8
:10558000040BF3E74BF0080BF0E74BF0100BEDE7E3
:10559000BBF17F0F19D8A6F13003092BD2D81BF02D
:1055A000400F03D00A2101FB0737DFE70A2101FB87
:1055B00009394BF0200BD9E72E2E06D11BF0400FF6
:1055C00040F09E804BF0400BD0E76C2E31D02BD8B2
:1055D000682E36D06A2E3CD04C2E3AD0002F46F0A2
:1055E0002003B8BF2BF04002A3F16501BCBF1FFA36
:1055F00082FB0027022901D9612B2FD1073525F025
:105600000705DFF8ACA2083507271BF0080F66D0A6
:105610000AEB070B56465E4563D1A4EB0A0A06EB7C
:105620000A02A9EB07096FE1742E9FD07A2E9DD054
:10563000D4E71BF0800F18BF4BF4007B4BF0800BBE
:1056400094E71BF4807F18BF4BF4007B4BF4807B06
:105650008CE74BF4207B89E71F4687E7A6F16301BF
:10566000122900F2F080DFE811F013004F00EE0085
:10567000EE00EE00EE004F00EE00EE00EE00EE0059
:10568000EE00FE00E900EE00EE001B00EE00AF00B1
:1056900055F8043B8DF8183001270DF1180AB4E7CE
:1056A00055F804AB834BBAF1000F08BF9A461BF0C4
:1056B000400F14BF39464FF0FF31504602F0FFFC57
:1056C0000746A2E7029B41462020984700280FDBAF
:1056D000013EB742F6D34C44A41BB14698E74E4670
:1056E000F7E716F8010B029B41469847002892DA2B
:1056F00098F8023043F0040388F802304FF0FF348A
:1057000020460DB0BDE8F08F1BF0800F34D01BF4A5
:10571000007F2CD0073525F00705AA4669685AF89E
:10572000080B2BF010050029ADB237DA404261EBCF
:10573000410145F480650DF1180B0A235A4602F029
:10574000E0FCA0EB0B0301936B0662D5019B25F0F7
:1057500001019F4289B240F3A180002E00F09980A0
:1057600015F0100240F09C80BB460D4623E0AA468F
:105770005AF8040BC117D4E7AA461BF4807F5AF8E5
:10578000041B01D10846F5E71BF4007F15BF48B2A2
:1057900008B241F3C01141F3C031C2E750EA01033E
:1057A000C9D11BF0400FC6D0002FC4D12BF011027D
:1057B00095B2BB46019740F2064115EA01021CBFB3
:1057C0000BF1010B00222CE02BF010021FFA82FBE0
:1057D0000A231BF0800C49D01BF400711DBF073554
:1057E00025F00705AA46AA461ABF5AF8080B6968A9
:1057F0005AF8040B50EA010545D12BF016051BF0B1
:10580000400FADB242D0002F40D12BF0170295B21D
:10581000019715F0100248D0019B002E42D103F1F0
:10582000010B29075AD4EB0706D5D9456FDD01993D
:10583000A9EB0B035F18CB465B4649E04BF0100B1E
:1058400010237826C5E7782B04D1C6F1780343F0FE
:105850001003BEE7029B4146252098470028FFF62B
:1058600047AF023447E608230026B2E7AA461BF4F6
:1058700080715AF8040BBDD01BF400711ABFC0B27E
:10588000614680B2B6E72BF0060295B20DF1180B17
:1058900054E725F01105ADB2BB468CE70D46B8E7DD
:1058A0003B460D4603F1020BBBE7DDF804B082E78F
:1058B00039A0000832A00008CDE904324146029B1D
:1058C000202098470028FFF613AF049B059A013368
:1058D0009945F1DCA4EB0B01CC189B460AB3029B63
:1058E0004146302098470028FFF602AF8EB90134B8
:1058F0002744019B391B994224DC1D465DBB019A5C
:10590000A9EB0B09224455461446914435E0019F0A
:1059100092E7023441463046029B98470028E7DA76
:10592000E6E640F206410D42E2D015F0020F14BF48
:105930002B20202015F4806F04F10104414618BF8C
:105940002D20E9E7029B414630209847002804F1CA
:105950000104CEDACCE606AB013D4146585D029B20
:1059600098470028CADAC3E6029B414620209847A0
:10597000002804F10104FFF6BBAEA9EB0403002BE1
:10598000F2DCBFE57047836800EBC101B3F5004F5F
:105990002CBF51F8220031F81200704700EBC10112
:1059A0008068B0F5004F2CBF41F8223021F812304A
:1059B000704708B50122FFF7E6FFD04008BD8368B5
:1059C000B3F5004F00EBC10108D34B681AB143F0A7
:1059D00001034B60704723F00103FAE74B881AB1CB
:1059E00043F001034B80704723F00103FAE75300B3
:1059F0000122FFF7D3BFB0F5004F34BF04230823C3
:105A0000481C0833A0EBD300B0FA80F0C0F11F00AF
:105A100070472DE9F0410D4686680446FFF7C9FF3F
:105A2000B6F5004F014601D3012832D03046FFF7CA
:105A3000E2FF04EB80010E6996B9E368012282401F
:105A40001343E36002220D612B4629462046FFF7EF
:105A5000A5FF032229462046BDE8F041FFF79EBF7F
:105A6000022231462046FFF78EFF294603460746AD
:105A70002046FFF793FF0322334629462046FFF7CF
:105A80008DFF39462B462046FFF788FF022231461C
:105A9000E1E7BDE8F081B2F5802F2CBF0823042395
:105AA000D21A2DE9F0418C18CD1D25F0070524F000
:105AB0000704641B0026E40805602146AC60EE6024
:105AC0002046FFF798FF421D9200013002F10707C0
